:020000040800F2
:10000000E046002045010008EB060008A9060008AC
:10001000E9060008F7040008290E000800000000A7
:1000200000000000000000000000000009090008B6
:100030003505000800000000E90700080D0B000866
:100040005F0100085F0100085F0100085F01000810
:100050005F0100085F0100085F0100085F01000800
:100060005F0100085F0100085F0100085F010008F0
:100070005F0100085F0100085F0100085F010008E0
:100080005F0100085F0100085F0100085F010008D0
:100090005F0100085F0100085F0100085F010008C0
:1000A0005F0100085F0100085F0100085F010008B0
:1000B0005F0100085F0100085F0100085F010008A0
:1000C0005F0100085F0100085F0100085F01000890
:1000D0005F010008610B00085F0100085F01000874
:1000E0005F0100085F0100085F0100085F01000870
:1000F0005F0100085F0100085F0100085F01000860
:100100005F0100085F0100085F0100085F0100084F
:100110005F0100085F0100085F0100085F0100083F
:100120005F0100085F0100085F0100085F0100082F
:10013000DFF80CD000F050F90048004735100008F7
:10014000E04600200648804706480047FEE7FEE7F5
:10015000FEE7FEE7FEE7FEE7FEE7FEE7FEE7FEE777
:10016000110B00083101000840EA01039B0703D08E
:1001700009E008C9121F08C0042AFAD203E011F8E6
:10018000013B00F8013B521EF9D27047F0B480EAFF
:100190000102D40F4200B2EB410F02D202460846E0
:1001A00011464A0042D0C30DDDB2C1F3C752AD1AA9
:1001B000202D35DAC1F3160141F4000204B1524298
:1001C000C5F1200602FA06F12A411044B3EBD05FD4
:1001D00023D0C4B1012DA0EBC35009DCF0BC4FF01B
:1001E000004202EAC352DBB200F5000000F0C5B8DD
:1001F000400000F1807000EBC350A0F1807040EA35
:10020000D170490009E0490841EAC071A0EBC35030
:1002100000F50000400800EBC350F0BC00F0A4B8AB
:100220006142012202EB4101001BF6E7F0BC70477E
:1002300081F00041AAE780F00040A7E780EA0102D0
:1002400010B502F00043400022D04A001FD0010E3A
:1002500001EB1261C0F35600C2F3560240F40000F5
:1002600042F40002A0FB022000047F39140400D0F5
:10027000401C50EA124001D44000491EC2B20C0694
:1002800004EBD010401C4008802A02D003E000207C
:1002900010BD20F00100002900DA0020184310BD35
:1002A00030B480EA010202F0004530F0004221F053
:1002B000004013D090B1C30DD40DC2F31601C0F3AA
:1002C0001600E41A41F4000140F400027D3491422A
:1002D00001D3641C00E04900002C02DA30BC00208D
:1002E00070474FF400000023914201D3891A034361
:1002F00040084FEA4101F7D151B1914202D14FF08C
:10030000004105E002D24FF0010101E06FF0010170
:1003100003EBC450284430BC00F026B896230022DA
:10032000114600F02AB80000002801DBC0F10040AF
:10033000002901DBC1F100418142704730B50B4615
:10034000014600202022012409E021FA02F59D4205
:1003500005D303FA02F5491B04FA02F52844151ED9
:10036000A2F10102F1DC30BD0029A8BF7047401C9A
:10037000490008BF20F00100704710B4B0FA80FCBB
:1003800000FA0CF050EA010404BF10BC704749B1F8
:10039000CCF1200421FA04F411FA0CF118BF012168
:1003A00021430843A3EB0C01CB1D4FEA00614FEA48
:1003B000102042BF002010BC704700EBC350104417
:1003C0000029A4BF10BC7047401C490008BF20F0A2
:1003D000010010BC70470000064C074D06E0E068C5
:1003E00040F0010394E8070098471034AC42F6D37C
:1003F000FFF7A2FE88100008A81000082DE9FF41B1
:10040000ADF5DD6D0024DDF8EF060088FFF786FF0F
:100410002B4D2946FFF712FF2A4EC6F80A00DDF8D9
:10042000EF064088FFF77AFF2946FFF707FFC6F877
:100430000E00BDF8ED060427001F00EBD070C0F3DE
:100440004700B074FFF76AFF01461F48FFF728FF17
:10045000804619E0DDF8EF0607EB44010844008808
:10046000FFF75CFF06EBC405C5F8170020461335FF
:10047000FFF754FF4146FFF7E1FED6F80E10FFF7F5
:1004800085FE641C2860E4B2B07CA042E2D80D4C2A
:1004900040F269320A3404F110016846FFF764FE45
:1004A00040F279322146DBA8FFF75EFEDBAC94E830
:1004B0000F0000F02BFA0DF5DF6DBDE8F0810000B4
:1004C0000AD7233C180000200000B44101A000F02E
:1004D000ADBC00005B4C696461725D204465766967
:1004E0006365206572726F72210A0000010A41EA99
:1004F000002080B27047FEE70246002005E012F8B7
:10050000013B491E184480B289B20029F7D17047D7
:1005100030B50C4615460721FFF7EEFFED1FAAB2D6
:1005200005E014F8011B521E084480B292B2002A62
:10053000F7D130BD7047000030B401F03F04012C0A
:100540000FD0042C0DD0142C05D0162C06D030BCA6
:1005500005A000F06BBC30BCFFF750BF30BCFFF70C
:10056000B5BF30BC704700005B4C696461725D20B0
:10057000507265712E436D644964206973207772EF
:100580006F6E67210A0000007FB582B00020ADF8D1
:1005900000009DF80800BDF80940AA2807D1124EB6
:1005A0007088A04203D39DF80B00042802D00020DD
:1005B00006B070BD2146301DFFF79EFF054631197C
:1005C00001226846091D00F082F8BDF8000000F025
:1005D00079F8ADF80000854203D004A000F026FCB5
:1005E000E5E70120E4E70000C83A00205B4C6964BD
:1005F00061725D204672616D6520697320435243CC
:10060000206572726F72210A00000000F0B5CC788C
:10061000002204F00F03E40601D58C7823430C7804
:100620004FF00F0C14F0FF0F4FF0010E1BD00568B8
:100630000E880EFA02F42640A64210D196000CFA5B
:1006400006F725EA070703FA06F5CE783D43282E7C
:1006500002D0482E02D002E0446100E00461521C46
:10066000082AE5D305600A88FF2A1CD944680022BD
:1006700002F108060EFA06F50E882E40AE420ED1A3
:1006800096000CFA06F7BC4303FA06F7CE783C4313
:10069000282E00D14561CE78482E00D10561521C2C
:1006A000082AE5D34460F0BDFEE7000004480021BD
:1006B0004170C171C0F80310817001817047000062
:1006C00018000020010A41EA002080B2704708E0CB
:1006D0004B7800F8013B11F8023B521E00F8013B39
:1006E00092B2002AF4D17047FEE7704730B50F236D
:1006F000C27801780125F2B1144A126801F1E021B3
:1007000002F4E062C2F5E062120AC2F10404D340CE
:100710004278A24084781C401443220181F80024CE
:10072000007800F01F018D404009800000F1E020BA
:10073000C0F8005130BD01F01F008540480980001D
:1007400000F1E020C0F8805130BD00000CED00E069
:100750000249084302490860704700000000FA059A
:100760000CED00E00FB4002070B504AB0E499DF80D
:10077000184013E00E8903EBC00201EBC60652F8E5
:10078000095FC6F883530D89526801EBC505C5F8AA
:1007900087230A89521C401C0A81C0B28442E9D8CE
:1007A00070BC5DF814FB0000180000201FB50D4858
:1007B000416800910189ADF80410807A8DF8060037
:1007C00008480B30CDF807009DE80F00FFF7DCFE6E
:1007D000002804D09DE80F00FFF7AEFE012004B012
:1007E00010BD0000C83A00207047000010B5054C4D
:1007F0002078002804D0FFF7D9FF00206080207007
:1008000010BD0000C83A0020044A0029116901D037
:10081000014300E081431161704700000010024075
:10082000044A0029916901D0014300E081439161AC
:100830007047000000100240044A0029D16801D02E
:10084000014300E08143D160704700000010024086
:1008500030B5204A5168204B11F00C0103D0042917
:1008600001D0082901D0036012E05168536801F4F7
:1008700070114FF0020413F4803F04EB914102D059
:1008800053689B0301D5154B00E0134B594301609E
:1008900051680F2303EA1111114B5C5C0168E140C0
:1008A00041605468072505EA14241C5D21FA04F40C
:1008B0008460546805EAD4241B5DD940C160526845
:1008C000032303EA9232064B1B1F9A5CB1FBF2F141
:1008D000016130BD0010024000127A0000093D00A5
:1008E0000400002007490878002806D1488800281D
:1008F00003D0032802D901200870704700204880E7
:1009000070470000C83A0020704700000FB4F0B5EF
:10091000274CADF55B7D40F269366078E4AF50B1AD
:10092000002501281DD00DF55B7D22A0F0BC5DF8EF
:1009300014EB00F07BBAE19800F072FB00280BD0BA
:10094000FFF7B4FE324639466846FFF70DFCE0ACCF
:1009500094E80F0000F046FB0DF55B7DF0BC5DF800
:1009600014FBD4F80310E198FFF7DEFC06D2E198FF
:1009700000F056FB0028E3D16570EDE732463946BA
:100980006846FFF7F1FB0DF5607C9CE80F00FFF770
:10099000E9FEE079401CC0B2E071E199C4F80310AF
:1009A0001028D9D1E57165700120A070D4E700004E
:1009B000180000205B4C696461725D20556B6E6F9E
:1009C000772067726162207363616E206461746175
:1009D0002073746174650A002DE9FF418046AA20E6
:1009E0008DF800000820ADF80100042101278DF8E2
:1009F00003108DF804700A260024ADF80570354602
:100A0000FFF774FD3846FFF771FD144F009807F1AA
:100A100017013861BDF80400B8829DF80600B8756A
:100A200087F817803246C81FFFF772FDADF80B003C
:100A30003876000A0A4E78763819017C304600F084
:100A4000DBF98021304600F061F90028F9D0641C00
:100A5000E4B2AC42F0D3BDE8FF810000A03A002030
:100A6000003801400CB5002226480092019201682E
:100A700041F4803101604FF4A063016801F400315A
:100A800001910099491C0091019911B9009999426D
:100A9000F3D10168890333D5012101911A490A680C
:100AA00042F010020A600A6822F003020A600A6833
:100AB00042F002020A604168416041684160416859
:100AC00041F480614160416821F47C1141604168DA
:100AD00041F434114160016841F0807101600168A6
:100AE0008901FCD5416821F003014160416841F072
:100AF000020141604168C1F381010229FAD10CBDB4
:100B000001920CBD0010024000200240704700001E
:100B10000F4810B5016841F00101016041680D4ABC
:100B20001140416001680C4A11400160016821F4E4
:100B300080210160416821F4FE0141604FF41F01F2
:100B40008160FFF78FFF05494FF00060086010BD1E
:100B5000001002400000FFF8FFFFF6FE08ED00E085
:100B600038B5104C2021204600F0D0F8251D38B1B2
:100B70002888C0B200F044F92021204600F078F81F
:100B80001021204600F0C2F828B1FFF7ABFE10217B
:100B9000204600F06DF820888DF8000028888DF838
:100BA000000038BD00380140F0B5044687B001218F
:100BB00044F20400FFF734FE4FF40070ADF810006B
:100BC00018208DF813000320274D8DF8120004A97A
:100BD0002846FFF71BFD2815ADF8100004208DF8FE
:100BE000130004A92846FFF711FD204D284600F008
:100BF00053F800940024ADF808400C20ADF80440F0
:100C0000ADF80A00ADF80640ADF80C40694628463C
:100C100000F09CF840F2255601223146284600F0AB
:100C20007CF840F2244701223946284600F075F846
:100C30000121284600F025F83146284600F01BF82F
:100C40003946284600F017F825208DF814008DF855
:100C5000154002208DF8160001208DF8170005A818
:100C6000FFF744FD07B0F0BD000801400038014027
:100C7000C943018070470A0A01219140C94301809C
:100C800070470029818902D041F4005101E021F42C
:100C90000051818170470000174910B588420AD180
:100CA00001218C032046FFF7C7FD2046BDE8104018
:100CB0000021FFF7C1BD1149884202D101214C0436
:100CC00010E00F49884202D101218C040AE00D494D
:100CD000884202D10121CC0404E00B4988420AD1A8
:100CE00001210C052046FFF78FFD2046BDE810408E
:100CF0000021FFF789BD10BD0038014000440040CD
:100D000000480040004C00400050004002460020D7
:100D100012880A4200D00120704710B5C1F3421377
:100D200001F01F040121A140012B07D0022B07D0A5
:100D30001430002A026805D00A4304E00C30F8E7BA
:100D40001030F6E78A43026010BD000030B504465B
:100D5000008A85B00D464CF6FF710840E9880143D2
:100D60002182A0894EF6F3110840A9882A891143EF
:100D70006A8902431143A181A08A4FF6FF410840CE
:100D8000A9890143A1826846FFF762FD19488442A0
:100D900001D1039800E00298A189090400EBC00189
:100DA00001EB0010296801D5490000E08900B0FB83
:100DB000F1F06422B0FBF2F109010B096FF01805A4
:100DC0006B4300EB8300A3891D044FF0320306D56B
:100DD00003EBC000B0FBF2F000F0070005E003EB0E
:100DE0000010B0FBF2F000F00F000843208105B0C6
:100DF00030BD000000380140C1F308018180704718
:100E000008490A78002A0CD14B880A1D9854488852
:100E100040F61402401C80B24880904201D3012069
:100E200008707047C83A0020FEE700000FB4054B79
:100E300010B503A9044A029800F018F810BC5DF838
:100E400014FB0000C10F00081400002002E008C8D5
:100E5000121F08C1002AFAD170477047002001E034
:100E600001C1121F002AFBD1704700002DE9FF4F7E
:100E700089B09B460446002506E025280BD05A463B
:100E80000B999047641C6D1C20780028F5D10DB09B
:100E90002846BDE8F08F0027B8460122474900E008
:100EA000074314F8013F203B02FA03F00842F7D150
:100EB00020782E2819D114F8010F47F004072A28AA
:100EC0000ED06FF02F022078A0F1300109290CD844
:100ED00008EB880102EB410100EB0108641CF2E71A
:100EE0000A98641C50F8048B0A9020780028CED011
:100EF000642808D0692806D075281ED05A460B9958
:100F000090476D1C58E00A994FF00A0901C90A91EF
:100F1000002802DA40422D2102E0390504D52B21B8
:100F20008DF82010012103E0F90704D02021F7E714
:100F30008A4608AE0DE00021FAE70A994FF00A0947
:100F400001C90A91F7E74946FFF7F8F9303106F889
:100F5000011D0028F7D1ADEB060000F1200978074C
:100F600001D44FF00108C84502DDA8EB090000E0FC
:100F700000208046002706E008A85A46C05D0B996D
:100F800090476D1C7F1C5745F6DB04E030205A4625
:100F90000B9990476D1CB8F10001A8F10108F5DC30
:100FA00005E016F8010B5A460B9990476D1CB9F1F4
:100FB0000001A9F10109F4DC641C65E709280100BE
:100FC00070B5074D0446C1B22846FFF715FF8021D2
:100FD0002846FFF79BFE0028F9D0204670BD000090
:100FE000003801400FB40D4800B5ADF55B7D01211F
:100FF0004170C171DD99C0F8031040F26932E0A977
:101000006846FFF7B1F80DF55C7C9CE80F00FFF730
:10101000A9FB0DF55B7D5DF814FB000018000020B6
:101020000349884201DC012070470020704700001E
:1010300017B7D1384FF4A060FFF78AFB4FF4613047
:10104000FFF7B2FDFFF732FB0120FFF7C5FC0025DB
:10105000054CFFF7CBFBA0780128FAD1A5702189B8
:1010600002A0FFF7E3FEF4E7180000206F6E652092
:10107000636972636C6520706F696E74206E756D44
:101080003A25640A00000000A810000800000020B3
:10109000180000004C0E0008C010000818000020C6
:1010A000C84600005C0E00080204060800000000AC
:1010B00001020304010203040607080900000000FE
:0400000508000131BD
:00000001FF
