:020000040800F2
:10000000A83C0020010100089B0B0008590B0008C8
:10001000990B0008010A0008C51200080000000042
:10002000000000000000000000000000B10D00080A
:100030001B0A000800000000910C0008AB0F00082C
:100040001B0100081B0100081B0100081B01000820
:100050001B0100081B0100081B0100081B01000810
:100060001B0100081B0100081B0100081B01000800
:100070001B0100081B0100081B0100081B010008F0
:100080001B0100081B0100081B0100081B010008E0
:100090001B0100081B0100081B0100081B010008D0
:1000A0001B0100081B0100081B0100081B010008C0
:1000B0001B0100081B0100081B0100081B010008B0
:1000C0001B0100081B0100081B0100081B010008A0
:1000D0001B010008FD0F00081B0100081B010008A0
:1000E0001B0100081B0100081B010008DFF80CD0F1
:1000F00000F056FB00480047111C0008A83C0020F7
:100100000648804706480047FEE7FEE7FEE7FEE7B1
:10011000FEE7FEE7FEE7FEE7FEE7FEE7AD0F0008BD
:10012000ED00000840EA01039B0703D009E008C97D
:10013000121F08C0042AFAD203E011F8013B00F8AC
:10014000013B521EF9D27047F0B480EA0102D40F8D
:100150004200B2EB410F02D20246084611464A0065
:1001600042D0C30DDDB2C1F3C752AD1A202D35DA2E
:10017000C1F3160141F4000204B15242C5F1200658
:1001800002FA06F12A411044B3EBD05F23D0C4B188
:10019000012DA0EBC35009DCF0BC4FF0004202EA95
:1001A000C352DBB200F5000000F014B9400000F1CA
:1001B000807000EBC350A0F1807040EAD17049001C
:1001C00009E0490841EAC071A0EBC35000F5000006
:1001D000400800EBC350F0BC00F0F3B861420122CC
:1001E00002EB4101001BF6E7F0BC704781F00041D3
:1001F000AAE780F00040A7E780EA010210B502F00C
:100200000043400022D04A001FD0010E01EB1261D2
:10021000C0F35600C2F3560240F4000042F400025C
:10022000A0FB022000047F39140400D0401C50EAD7
:10023000124001D44000491EC2B20C0604EBD0109B
:10024000401C4008802A02D003E0002010BD20F0AE
:100250000100002900DA0020184310BD30B480EA04
:10026000010202F0004530F0004221F0004013D0BE
:1002700090B1C30DD40DC2F31601C0F31600E41AF9
:1002800041F4000140F400027D34914201D3641C2A
:1002900000E04900002C02DA30BC002070474FF427
:1002A00000000023914201D3891A034340084FEA1A
:1002B0004101F7D151B1914202D14FF0004105E027
:1002C00002D24FF0010101E06FF0010103EBC450D5
:1002D000284430BC00F075B8420005D0C0F3C752C6
:1002E0005242914201DC0020704700EBC150704740
:1002F00096230022114600F06DB800F0004230F065
:1003000000400AD0C10D01F56071C0F3160042EA49
:100310000151C20840071143704700200146704751
:10032000002801DBC0F10040002901DBC1F10041E0
:100330008142704730B50B4601460020202201243F
:1003400009E021FA02F59D4205D303FA02F5491BA3
:1003500004FA02F52844151EA2F10102F1DC30BDB9
:100360002DE9F05F0546002092469B4688460646EA
:10037000814640241BE0284641464746224600F07D
:1003800030FA53465A46C01A914110D311461846C6
:10039000224600F017FA2D1A67EB01084F46224655
:1003A0000120002100F00EFA17EB00094E41201E3B
:1003B000A4F10104DFDC484631462A464346BDE845
:1003C000F09F0029A8BF7047401C490008BF20F0DB
:1003D0000100704710B4B0FA80FC00FA0CF050EA4B
:1003E000010404BF10BC704749B1CCF1200421FACC
:1003F00004F411FA0CF118BF012121430843A3EBC7
:100400000C01CB1D4FEA00614FEA102042BF0020D3
:1004100010BC704700EBC35010440029A4BF10BCAF
:100420007047401C490008BF20F0010010BC704715
:100430002DE9FE4F804681EA0300C00F0C46009074
:1004400021F0004123F00045B8EB0200A94105D29C
:100450004046214690461C460B46024623F000408B
:10046000104347D0270DC7F30A00C3F30A51029087
:10047000401A019040286BDAC3F3130040F4801B4C
:100480000098924620B10023D2EB030A63EB0B0BDA
:1004900001985946C0F14002504600F093F90646D3
:1004A0000D4650465946019A00F0ABF910EB080092
:1004B0006141002487EA115284EAE7731A4340D06D
:1004C000009A62B3019A012A4FEA075215DC001B19
:1004D00061EB02014FF0004202EA0752CDE900420F
:1004E000001C41F5801132462B4600F0ABF903B0F9
:1004F000BDE8F08F40462146F9E7001B61EB0201A1
:10050000001C41F5801300185B412018A2F500176C
:1005100047EB030140EAD570B6196D4111E06D0853
:100520004FEA360645EAC0754FEA0752001B61EBF9
:100530000201001C41F5801149084FEA3000001902
:10054000514132462B4603B0BDE8F04F00F06BB985
:100550000098012240000023D0EB020263EBE0731D
:10056000009821464FEAE074B8EB000061EB04010B
:10057000E9E783F000435BE781F0004158E72DE9AC
:10058000FE4F81EA030404F0004421F0004100948E
:100590004FF0000B23F0004350EA01045ED052EA12
:1005A00003045BD0C3F30A54C1F30A552C44A4F2EC
:1005B000F3340194A0FB0254C1F3130141F4801100
:1005C000C3F3130343F4801301FB024400FB034E07
:1005D000840A970A44EA815447EA8357A4FB0768D0
:1005E00002958D0A05FB07854FEA932C04FB0C54FA
:1005F0002705029D4FEA065847EA1637B5EB08056E
:100600006EEB070C870E920E47EA811742EA8312BF
:10061000A7FB0201B6EB0B0164EB00042B0D43EAD0
:100620000C335E1844EB1C50DA465146E7FB0201DE
:10063000C5F313044FEA0B3343EA14534FEA043271
:10064000019C43EA0603A4F10C040294009CCDE94A
:1006500000B400F0F7F803B0BDE8F08F00200146C9
:10066000F9E72DE9F04D81EA030404F0004B21F095
:10067000004514464FF0000A23F0004150EA0502FD
:1006800020D054EA01021DD0C5F30A570246C5F333
:100690001303C1F31300C1F30A5640F4801543F469
:1006A0008013A7EB0608101BD64608F2FD3873EB43
:1006B000050002D308F1010801E092185B41B8F18E
:1006C000000F03DA00200146BDE8F08D00204FF452
:1006D0008011064684460EE0171B73EB050705D311
:1006E000121B63EB050306434CEA010C49084FEA71
:1006F000300092185B4150EA0107EDD152EA030045
:1007000012D082EA040083EA0501084305D0101BD9
:10071000AB4106D20122002306E000224FF0004345
:1007200002E06FF0010253101AEB06004CEB085187
:1007300010EB0A0041EB0B01BDE8F04D00F073B87F
:10074000C1F30A52C1F3130140F2FF3341F48011A7
:100750009A4202DA00200146704740F233439A423F
:10076000A2F2334202DC524200F03BB800F02AB859
:1007700030B5041E71F1000404DB4FF00044404228
:1007800064EB0101141E73F1000405DB1C464FF0FD
:100790000043524263EB0403994208BF904230BDCC
:1007A000064C074D06E0E06840F0010394E80700BE
:1007B00098471034AC42F6D3FFF79CFCA81C000805
:1007C000C81C0008202A04DB203A00FA02F10020AD
:1007D00070479140C2F1200320FA03F3194390407F
:1007E0007047202A04DB203A21FA02F000217047EA
:1007F00021FA02F3D040C2F1200291400843194689
:100800007047202A06DBCB17203A41FA02F043EA70
:10081000E07306E041FA02F3D040C2F120029140B9
:1008200008431946704710B5141E73F1000408DA26
:10083000401C41F1000192185B411A4301D120F0A4
:10084000010010BD2DE9F04D92469B4611B1B1FA61
:1008500081F202E0B0FA80F220329046FFF7B2FF58
:1008600004460F4640EA0A0041EA0B0153465A4645
:10087000084313D0114653EA010019D0C8F14002D1
:100880005046FFF7AEFF05460E46504659464246D3
:10089000FFF798FF084305D0012004E020463946C1
:1008A000BDE8F08D0020054346EAE0762C4337434F
:1008B0000A986305E40AA0EB08000022FD0A44EA56
:1008C00047540A3002D500200146E9E70105101916
:1008D0006941DDE9084500196941BDE8F04DA2E72D
:1008E00001A000F0F1BC00005B4C696461725D2006
:1008F0005370656564206572726F72210A00000092
:100900002DE9F0430546ADF2546D0024C08800F097
:1009100031F9E880A8680078FFF7EAFC3449FFF76E
:100920006BFC344F47F8090FA868401C00F03AFBF5
:10093000FFF7DEFC304E3146FFF75EFC7860A868BA
:100940004FF00309C01C00F02DFBFFF7D1FC31462E
:10095000FFF752FCB860E8884FF00508401F90FB95
:10096000F9F0C0B23873093FFFF7C2FC01462348D3
:10097000FFF774FC81461FE0A96804EB4400414482
:10098000401C084400F00EFBFFF7B2FC6FF00101C1
:10099000FFF7A2FC07EBC406C6F81A00204616367D
:1009A000FFF7A6FC4946FFF727FCD7F81110FFF721
:1009B000CBFB641C3060E4B2787DA042DCD80D4CE7
:1009C00040F21D32093404F110016846FFF7AAFB1A
:1009D00040F22D322146C8A8FFF7A4FBC8AC94E82A
:1009E0000F0000F0E7F90DF2546DBDE8F083000050
:1009F000CDCC4C3D180000200AD7233C0000B44168
:100A0000FEE70246002005E012F8013B491E1844AB
:100A100080B289B20029F7D17047704707B59DF8B9
:100A20000500AD2805D0AE2802D16846FFF758FF73
:100A30000EBD6846FFF764FF0EBD000077B581B0BC
:100A40000020ADF80000BDF8050000F093F8044662
:100A50009DF80400AA2807D10F4D6888A04203D34F
:100A60009DF80800612802D0002004B070BD214626
:100A7000281DFFF7C6FF0646291901226846091DF1
:100A800000F07DF8BDF80000864203D003A000F01E
:100A90001BFCE9E70120E8E78E2200205B4C69643B
:100AA00061725D204672616D652069732043524317
:100AB000206572726F72210A00000000F0B5CC78D8
:100AC000002204F00F03E40601D58C7823430C7850
:100AD0004FF00F0C14F0FF0F4FF0010E1BD0056804
:100AE0000E880EFA02F42640A64210D196000CFAA7
:100AF00006F725EA070703FA06F5CE783D43282EC8
:100B000002D0482E02D002E0446100E00461521C91
:100B1000082AE5D305600A88FF2A1CD94468002208
:100B200002F108060EFA06F50E882E40AE420ED1EE
:100B300096000CFA06F7BC4303FA06F7CE783C435E
:100B4000282E00D14561CE78482E00D10561521C77
:100B5000082AE5D34460F0BDFEE700000448002108
:100B600001708171C0F802104170A0F80710704741
:100B700018000020010A41EA002080B2704708E016
:100B80004B7800F8013B11F8023B521E00F8013B84
:100B900092B2002AF4D17047FEE7704730B50F23B8
:100BA000C27801780125F2B1144A126801F1E021FE
:100BB00002F4E062C2F5E062120AC2F10404D3401A
:100BC0004278A24084781C401443220181F800241A
:100BD000007800F01F018D404009800000F1E02006
:100BE000C0F8005130BD01F01F0085404809800069
:100BF00000F1E020C0F8805130BD00000CED00E0B5
:100C00000249084302490860704700000000FA05E5
:100C10000CED00E00FB4002070B504AB10499DF856
:100C20001C4017E0B1F8076003EBC00201EBC606F9
:100C300052F80D5FC6F83653B1F80750526801EB11
:100C4000C505C5F83A23B1F80720521C401CA1F88D
:100C50000720C0B28442E5D870BC5DF814FB0000E8
:100C60001800002070B5094800F10C02446885683E
:100C7000164629462046FFF7E1FE002805D03246F9
:100C800029462046FFF7CAFE012070BD8E220020B3
:100C90007047000010B5054C2078002804D0FFF7FD
:100CA000E1FF00206080207010BD00008E22002037
:100CB000044A0029116901D0014300E08143116118
:100CC0007047000000100240044A0029916901D0D9
:100CD000014300E081439161704700000010024031
:100CE000044A0029D16801D0014300E08143D1606A
:100CF000704700000010024030B5204A5168204B78
:100D000011F00C0103D0042901D0082901D003609F
:100D100012E05168536801F470114FF0020413F4AB
:100D2000803F04EB914102D053689B0301D5154BE2
:100D300000E0134B5943016051680F2303EA11117E
:100D4000114B5C5C0168E14041605468072505EA8D
:100D500014241C5D21FA04F48460546805EAD42448
:100D60001B5DD940C1605268032303EA9232064BEF
:100D70001B1F9A5CB1FBF2F1016130BD0010024013
:100D800000127A0000093D0004000020074908789D
:100D9000002806D14888002803D0032802D9012062
:100DA0000870704700204880704700008E220020A5
:100DB000704700000FB42DE9F043374CADF5497D85
:100DC00040F21D3820780DF5547958B100250128DE
:100DD0002CD00DF5497D31A0BDE8F0035DF814EB92
:100DE00000F072BAD29800F009FF88B1FFF7B6FEA2
:100DF000424649466846FFF795F9D0AC94E80F00A3
:100E000000F0DEFE0DF5497DBDE8F0035DF814FB52
:100E1000D298FFF772FA0DF5497D0246BDE8F0035E
:100E20000B4627A05DF814EB00F04EBAD4F8021080
:100E3000D298FFF775FA16D2D4F80200FFF75DFAE0
:100E400006460F46D298FFF758FA02460B462A4844
:100E5000CDE9006700F038FAD29800F0CFFE002804
:100E6000C4D12570CEE7424649466846FFF75AF995
:100E7000D0AE96E80F00FFF7CDFEA079401CC0B2BF
:100E8000A071D299C4F802101028BBD1A5712570A9
:100E900001206070B6E70000180000205B4C696418
:100EA00061725D20556B6E6F77206772616220738F
:100EB00063616E20646174612073746174650A00FB
:100EC0005B4C696461725D20475241425F5343410C
:100ED0004E5F4649525354206973206E6F74207AD6
:100EE00065726F3B207363616E20616E676C652075
:100EF00025352E3266210A00601C00080CB5002240
:100F0000264800920192016841F4803101604FF45B
:100F1000A063016801F4003101910099491C00911E
:100F2000019911B900999942F3D10168890333D528
:100F3000012101911A490A6842F010020A600A6808
:100F400022F003020A600A6842F002020A60416865
:100F5000416041684160416841F48061416041689D
:100F600021F47C114160416841F434114160016811
:100F700041F08071016001688901FCD5416821F070
:100F800003014160416841F0020141604168C1F3E1
:100F900081010229FAD10CBD01920CBD0010024062
:100FA00000200240008840BA704770470F4810B5D3
:100FB000016841F00101016041680D4A1140416042
:100FC00001680C4A11400160016821F48021016030
:100FD000416821F4FE0141604FF41F018160FFF779
:100FE0008DFF05494FF00060086010BD0010024001
:100FF0000000FFF8FFFFF6FE08ED00E038B5104CEA
:101000002021204600F0D0F8251D38B12888C0B234
:1010100000F044F92021204600F078F81021204605
:1010200000F0C2F828B1FFF7B1FE1021204600F011
:101030006DF820888DF8000028888DF8000038BDF4
:1010400000380140F0B5044687B0012144F20400A5
:10105000FFF73AFE4FF40070ADF8100018208DF83D
:1010600013000320274D8DF8120004A92846FFF72E
:1010700025FD2815ADF8100004208DF8130004A9F3
:101080002846FFF71BFD204D284600F053F800943A
:101090000024ADF808400C20ADF80440ADF80A007B
:1010A000ADF80640ADF80C406946284600F09CF8C3
:1010B00040F2255601223146284600F07CF840F2E5
:1010C000244701223946284600F075F801212846B8
:1010D00000F025F83146284600F01BF8394628462E
:1010E00000F017F825208DF814008DF81540022027
:1010F0008DF8160001208DF8170005A8FFF74EFDAA
:1011000007B0F0BD0008014000380140C94301802C
:1011100070470A0A01219140C943018070470029A4
:10112000818902D041F4005101E021F40051818114
:1011300070470000174910B588420AD101218C037D
:101140002046FFF7CDFD2046BDE810400021FFF707
:10115000C7BD1149884202D101214C0410E00F495A
:10116000884202D101218C040AE00D49884202D153
:101170000121CC0404E00B4988420AD101210C056D
:101180002046FFF795FD2046BDE810400021FFF7FF
:101190008FBD10BD003801400044004000480040B1
:1011A000004C0040005000400246002012880A42D5
:1011B00000D00120704710B5C1F3421301F01F04A5
:1011C0000121A140012B07D0022B07D01430002AA7
:1011D000026805D00A4304E00C30F8E71030F6E767
:1011E0008A43026010BD000030B50446008A85B015
:1011F0000D464CF6FF710840E98801432182A08921
:101200004EF6F3110840A9882A8911436A890243DE
:101210001143A181A08A4FF6FF410840A9890143EB
:10122000A1826846FFF768FD1948844201D10398FE
:1012300000E00298A189090400EBC00101EB001055
:10124000296801D5490000E08900B0FBF1F0642273
:10125000B0FBF2F109010B096FF018056B4300EBCD
:101260008300A3891D044FF0320306D503EBC000B1
:10127000B0FBF2F000F0070005E003EB0010B0FB5C
:10128000F2F000F00F000843208105B030BD0000EF
:1012900000380140C1F308018180704708490A788D
:1012A000002A0BD14B880A1D98544888401C80B2F4
:1012B0004880B0F58A7F01D3012008707047000094
:1012C0008E220020FEE700000FB4054B10B503A9E5
:1012D000044A029800F0CAF810BC5DF814FB000044
:1012E0009D1B00081400002002E008C8121F08C15E
:1012F000002AFAD170477047002001E001C1121F97
:10130000002AFBD1704700002DE9FF5FDDE90220D4
:10131000010DDDF838B0024318D044F61050A1F2A8
:10132000FF3141430D140F98012820D0A5EB0B008D
:10133000401C5FEA000A4FF00004474EDFF81C91A2
:10134000A046504616D5CAF1000728E00F980124A0
:1013500043A2012808D0002100980F9BC0E900217A
:10136000C0E90243BDE8FF9F6FEA0B01F4E7CBF150
:101370000000DEE7074612E0F80707D022463346B2
:1013800040464946FFF7FBF88046894622463346E9
:1013900010461946FFF7F3F804460E467F10002F5B
:1013A000EAD1DDE90201BAF1000F42464B4602DA0A
:1013B000FFF7E5F801E0FFF754F904460E46002276
:1013C000284BFFF7D5F903D84FF0FF30014607E06F
:1013D0000022254B20463146FFF72AF8FFF7B0F9E7
:1013E000102409E0002C0ADB0A220023FEF7B8FFD4
:1013F000019B30321A55641E50EA0102F2D1641C7E
:10140000019AC4F1110314440F9A012A03D0012256
:1014100008430DD10AE0084304D000204FF0110B1F
:101420000F9080E7A3EB0B056D1E0DE05B4504DD1F
:101430004FF0000205F1010504E003DA4FF000026D
:10144000A5F10105002AECD000980F99C0E90231FE
:10145000C0E9004586E70000000024400000F03F9E
:10146000300000000000F0430000E03F2DE9FF4F96
:1014700095B09B468946064600250FE2252877D180
:1014800000242746F84A0121059400E0044316F899
:10149000013F203B01FA03F01042F7D130782A28AF
:1014A00011D06FF02F033078A0F13002092A16D83E
:1014B000059A44F0020402EB820203EB420210445C
:1014C000761C0590EFE759F8042B0592002A03DA01
:1014D000504244F40054059044F00204761C3078E5
:1014E0002E2816D116F8010F44F004042A280DD036
:1014F0006FF02F023078A0F13003092B09D807EBE9
:10150000870302EB4303C718761CF3E759F8047B03
:10151000761C30786C280FD006DC4C2817D0682851
:101520000DD06A2814D104E0742810D07A280FD185
:101530000DE044F400140AE044F4801401E044F4A3
:1015400040147278824202D104F58014761C761C15
:10155000307866280BD013DC582877D009DC0028B7
:1015600075D04528F6D04628F4D047281AD19DE1F9
:1015700018E0632835D0642879D0652812D195E128
:10158000702873D008DC6728F1D069286FD06E28E6
:101590000DD06F2806D1B5E073282CD0752875D0F2
:1015A000782874D05A46179990476D1C75E1C4F39A
:1015B0000250022809D003280DD0D9F800100428C1
:1015C0000DD00D6009F1040967E1D9F80010EA17A0
:1015D000C1E90052F6E7D9F800100D80F2E70D706E
:1015E000F0E719F8041B8DF8001000208DF80100B9
:1015F000EA46012003E059F804AB4FF0FF306107E1
:101600004FF0000102D40DE008F101018846B94213
:101610000FDA8045F8DB1AF808100029F4D108E049
:1016200008F1010188468142FADB1AF80810002906
:10163000F6D105985B46A0EB080721463846179A75
:1016400000F094FA284400EB080507E04DE029E19A
:101650000DE01AF8010B5A4617999047B8F10108A6
:10166000F7D25B4621463846179A13E142E00A2238
:101670000092C4F302524FF0000A022A08D059F82F
:1016800004CB032A4FEAEC710AD00DE029E02AE0EE
:1016900009F1070121F00702F2E802C1914609E0D1
:1016A0000FFA8CFC4FEAEC71042A03D14FFA8CFC40
:1016B0004FEAEC71002907DA0A460021DCF1000C40
:1016C00061EB02012D2202E0220504D52B228DF8C8
:1016D0000420012203E0E20701D02022F7E7904630
:1016E00059E00A2102E010220DE010214FF0000A1B
:1016F00000910BE010224FF0000A44F00404082788
:10170000009203E008224FF0000A0092C4F3025254
:10171000022A05D059F804CB0021032A08D009E099
:1017200009F1070121F00702F2E802C1914605E044
:101730001FFA8CFC042A01D10CF0FF0C4FF00008BA
:10174000220728D5702806D0009B83F0100353EAA7
:101750000A0305D00EE040228DF80420012208E0A3
:101760005CEA010206D030228DF804208DF80500D5
:1017700002229046009B83F0080353EA0A030AD131
:101780005CEA010201D1620705D530228DF8042000
:101790004FF001087F1E582804D034A003900EA8F3
:1017A00002900DE036A0F9E753466046009AFEF736
:1017B000D7FD84460398825C0298401E0290027016
:1017C0005CEA0100F0D1029806A9081A00F1200A8B
:1017D000600702D524F4803400E00127574502DD7C
:1017E000A7EB0A0000E0002000EB0A01009005983A
:1017F0004144401A0590E00306D45B462146179AFF
:10180000059800F0B3F90544002706E001A85A4600
:10181000C05D179990476D1C7F1C4745F6DBE003C0
:101820000CD55B462146179A059800F09FF90544B0
:1018300004E030205A46179990476D1C0099481EC5
:1018400000900029F5DC08E0029802995A460078D9
:10185000491C0291179990476D1CBAF10001AAF139
:10186000010AF1DC65E10000092801003031323362
:1018700034353637383961626364656600000000CC
:1018800030313233343536373839414243444546B6
:101890000000000000F058F90544761C307800285C
:1018A0007FF4ECAD19B02846BDE8F08F620700D494
:1018B000062709F1070222F0070CFCE80223E146A3
:1018C00003F000485FEA080C02D00FF2702C0DE024
:1018D0005FEA045C02D50FF2682C07E05FEAC47C83
:1018E00002D00FF2602C01E0AFF2700C4FF0FF3825
:1018F00023F00043CDF850C065280CD006DC452805
:1019000009D046281DD047283DD13DE0662818D093
:1019100067287ED138E00021112F01DB112000E083
:10192000781CCDE9000106A90EA8FFF7EDFCDDE962
:101930000F010E9A03910021009207F1010A049110
:101940004DE04FF000400097CDE9011006A90EA828
:10195000FFF7DAFCDDE90F0203920E9B11990022DA
:10196000DDF80CA00093049211B9791C00EB010A78
:10197000B7EB0A0004D4C0F1FF3007F1010A04906C
:10198000AAEB0700019044E0012F00DA01270021B3
:10199000112F01DD112000E03846CDE9000106A934
:1019A0000EA8FFF7B1FCDDE90F010E9A03910021AB
:1019B00004910092BA4621070CD40399514500DAEC
:1019C0008A46BAF1010F05DD009AAAF10101515CC6
:1019D000302908D0B84202DA10F1040F06DA0121EA
:1019E000CDE9011015E0AAF10101E9E7002805DCC5
:1019F000049901440491AAEB000102E0411C514505
:101A000000DD8A460499401A401C01904FF00040C6
:101A10000290200704D40198504501DBCDF80480E2
:101A200000208DF84F0002980DF14F07B0F1004FE4
:101A300025D02B200E9002984FF0020800280CDAD7
:101A4000404202902D200E9007E00A210298FEF7F6
:101A500071FC3031029007F8011DB8F10001A8F1C6
:101A60000108F2DC02980028EFD1791E0E98087068
:101A7000307800F0200040F0450007F8020D12A871
:101A8000C01B00F107081498007800B1012000EB9A
:101A90000A01019801EBE07105984144401A401E8B
:101AA0000590E00306D45B462146179A059800F09E
:101AB0005DF805441498007818B15A461799904774
:101AC0006D1CE00324D55B462146179A059800F06B
:101AD0004DF805441CE00498002807DBDDE903010C
:101AE000884203DD0098405C179901E01799302087
:101AF0005A469047049805F10105401C049001984E
:101B0000401E019004D12E205A46179990476D1C13
:101B1000BAF10001AAF1010ADDDC05E017F8010BBA
:101B20005A46179990476D1CB8F10001A8F10108B9
:101B3000F4DC5B462146179A0598ABE62D000000C1
:101B40002B000000200000002DE9F0410446002594
:101B50001E461746880404D405E039462020B047C5
:101B60006D1C641EF9D52846BDE8F0812DE9F041D1
:101B7000044600251E469046C80301D5302700E0E4
:101B80002027880404D505E041463846B0476D1C3F
:101B9000641EF9D52846BDE8F081000070B5074DF8
:101BA0000446C1B22846FFF775FB80212846FFF79F
:101BB000FBFA0028F9D0204670BD00000038014033
:101BC0000FB40D4800B5ADF5497D0121017081715B
:101BD000CC99C0F8021040F21D32CEA96846FEF73B
:101BE000A1FA0DF54A7C9CE80F00FFF713F80DF5FC
:101BF000497D5DF814FB000018000020034988426D
:101C000001DC0120704700207047000017B7D13871
:101C10004FF4A060FEF7F4FF4FF46130FFF712FAC3
:101C2000FEF79CFF0025064CFFF734F8607801288A
:101C3000FAD16570B4F8071002A0FFF745FBF3E78F
:101C4000180000206F6E6520636972636C652070F8
:101C50006F696E74206E756D3A25640A000000008D
:101C60005B4C696461725D205265737461727420AB
:101C70007363616E2C204672616D6553746172747A
:101C8000416E676C653A2025352E32662C204C61FA
:101C900073745363616E416E676C653A2025352E0F
:101CA0003266210A00000000C81C00080000002065
:101CB00018000000E8120008E01C000818000020CE
:101CC000903C0000F8120008020406080000000022
:101CD00001020304010203040607080900000000D2
:04000005080000ED02
:00000001FF
